:100000000C942A000C943F000C943F000C943F0089
:100010000C943F000C943F000C943F000C943F0064
:100020000C943F000C943F000C943F000C943F0054
:100030000C943F000C943F000C943F000C943F0044
:100040000C943F000C943F000C943F000C943F0034
:100050000C943F0011241FBECFE5D8E0DEBFCDBF1A
:1000600010E0A0E6B0E0E8EAF8E002C005900D92EA
:10007000AE3BB107D9F70E944C020C9452040C9489
:100080000000843008F072C0683008F06FC0423061
:1000900008F06CC0813001F130F08230B1F1833072
:1000A00009F44CC00895413059F42AB381E090E03E
:1000B00002C0880F991F6A95E2F7822B8ABB0895C8
:1000C0002AB381E090E002C0880F991F6A95E2F799
:1000D000809582238ABB0895413059F427B381E08B
:1000E00090E002C0880F991F6A95E2F7822B87BBC8
:1000F000089527B381E090E002C0880F991F6A95A8
:10010000E2F78095822387BB0895413059F424B3E8
:1001100081E090E002C0880F991F6A95E2F7822B78
:1001200084BB089524B381E090E002C0880F991F3A
:100130006A95E2F78095822384BB0895413059F493
:1001400021B381E090E002C0880F991F6A95E2F721
:10015000822B81BB089521B381E090E002C0880F1B
:10016000991F6A95E2F78095822381BB08958430B8
:1001700008F072C0683008F06FC0423008F06CC000
:10018000813001F130F08230B1F1833009F44CC09C
:100190000895413059F42BB381E090E002C0880FFC
:1001A000991F6A95E2F7822B8BBB08952BB381E0F0
:1001B00090E002C0880F991F6A95E2F7809582232C
:1001C0008BBB0895413059F428B381E090E002C020
:1001D000880F991F6A95E2F7822B88BB089528B390
:1001E00081E090E002C0880F991F6A95E2F7809540
:1001F000822388BB0895413059F425B381E090E013
:1002000002C0880F991F6A95E2F7822B85BB08957B
:1002100025B381E090E002C0880F991F6A95E2F74C
:100220008095822385BB0895413059F422B381E043
:1002300090E002C0880F991F6A95E2F7822B82BB7B
:10024000089522B381E090E002C0880F991F6A955B
:10025000E2F78095822382BB0895CF93C82F80FF59
:1002600006C041E064E080E00E94B70005C040E0C5
:1002700064E080E00E94B700C1FF06C041E065E095
:1002800080E00E94B70005C040E065E080E00E9489
:10029000B700C2FF06C041E066E080E00E94B70000
:1002A00005C040E066E080E00E94B700C3FF06C0E2
:1002B00041E067E080E00E94B70005C040E067E0F1
:1002C00080E00E94B700CF910895CF93C82F40E0FF
:1002D00061E081E00E94B70040E062E081E00E94BE
:1002E000B7008C2F82958F700E942D0141E063E052
:1002F00081E00E94B7008FE99FE00197F1F700C00D
:10030000000040E063E081E00E94B7008C2F0E9473
:100310002D0141E063E081E00E94B7008FE99FE09A
:100320000197F1F700C0000040E063E081E00E9427
:10033000B700CF9108952FE785EB91E021508040E1
:100340009040E1F700C0000040E061E081E00E94E1
:10035000B70040E062E081E00E94B70082E00E94C6
:100360002D0141E063E081E00E94B7008FE99FE04A
:100370000197F1F700C0000040E063E081E00E94D7
:10038000B70088E20E94650195ED9A95F1F70000AB
:100390008FE00E94650125ED2A95F1F7000081E0CC
:1003A0000E9465018FE39FE10197F1F700C0000013
:1003B00086E00E9465010895CF93C82F41E061E077
:1003C00081E00E94B70040E062E081E00E94B70057
:1003D0008C2F82958F700E942D0141E063E081E0B7
:1003E0000E94B7008FE99FE00197F1F700C000007D
:1003F00040E063E081E00E94B7008C2F0E942D0155
:1004000041E063E081E00E94B7008FE99FE001973F
:10041000F1F700C0000040E063E081E00E94B70017
:10042000CF9108950F931F93CF93009729F40CC099
:100430000E94DC01CF5F02C08C01C0E0F801EC0F2C
:10044000F11D80818111F4CFCF911F910F910895FB
:1004500041E064E080E00E94410041E065E080E02E
:100460000E94410041E066E080E00E94410041E0DE
:1004700067E080E00E94410041E061E081E00E948D
:10048000410041E062E081E00E94410041E063E020
:1004900081E00E9441000895CF93DF931F92CDB772
:1004A000DEB70E94EC020E94280241E063E080E097
:1004B0000E94410041E063E083E00E94410040E08F
:1004C00060E083E00E94410041E061E083E00E943F
:1004D00041000E943C040E949B01CE0101960E94B3
:1004E0004A048981863481F481E00E9465018FE3AA
:1004F0009FE10197F1F700C000000E94980380E699
:1005000090E00E941202E9CF8F3481F481E00E94D2
:1005100065018FE39FE10197F1F700C000000E94A1
:1005200015038FE690E00E941202D7CF823581F446
:1005300081E00E9465018FE39FE10197F1F700C020
:1005400000000E94C10380E890E00E941202C5CF23
:100550008C3481F481E00E9465018FE39FE1019773
:10056000F1F700C000000E94EA038EE890E00E94CC
:100570001202B3CF823481F481E00E9465018FE3DF
:100580009FE10197F1F700C000000E9413048BE97E
:1005900090E00E941202A1CF833541F08C3631F0F9
:1005A000823721F0863611F0823619F40E946F03EB
:1005B00094CF41E063E083E00E94B70081E00E94B5
:1005C00065018FE39FE10197F1F700C000008BEA1E
:1005D00090E00E94120281CF41E066E082E00E943A
:1005E000410041E065E082E00E94410041E064E0BA
:1005F00082E00E94410041E063E082E00E9441000D
:1006000041E067E081E00E94410041E066E081E076
:100610000E94410041E065E081E00E94410041E02C
:1006200064E081E00E944100089540E066E082E0DD
:100630000E94B70041E065E082E00E94B70041E01F
:1006400064E082E00E94B70040E063E082E00E9444
:10065000B70041E067E081E00E94B70040E066E05B
:1006600081E00E94B70040E065E081E00E94B700B1
:1006700041E064E081E00E94B7002FEF84E493E35F
:10068000215080409040E1F700C0000040E066E06B
:1006900082E00E94B70040E065E082E00E94B7007F
:1006A00040E064E082E00E94B70040E063E082E066
:1006B0000E94B70040E067E081E00E94B70040E0A0
:1006C00066E081E00E94B70040E065E081E00E94C2
:1006D000B70040E064E081E00E94B700089540E088
:1006E00066E082E00E94B70040E065E082E00E94A0
:1006F000B70040E064E082E00E94B70040E063E0C1
:1007000082E00E94B70040E067E081E00E94B7000D
:1007100040E066E081E00E94B70040E065E081E0F3
:100720000E94B70040E064E081E00E94B7000895B5
:1007300040E066E082E00E94B70041E065E082E0D0
:100740000E94B70040E064E082E00E94B70041E010
:1007500063E082E00E94B70041E067E081E00E9430
:10076000B70040E066E081E00E94B70041E065E04C
:1007700081E00E94B70040E064E081E00E94B700A1
:10078000089541E066E082E00E94B70040E065E045
:1007900082E00E94B70040E064E082E00E94B7007F
:1007A00041E063E082E00E94B70040E067E081E062
:1007B0000E94B70041E066E081E00E94B70041E09E
:1007C00065E081E00E94B70040E064E081E00E94C3
:1007D000B700089540E066E082E00E94B70041E083
:1007E00065E082E00E94B70041E064E082E00E94A0
:1007F000B70040E063E082E00E94B70041E067E0BC
:1008000081E00E94B70040E066E081E00E94B7000E
:1008100040E065E081E00E94B70041E064E081E0F3
:100820000E94B700089541E066E082E00E94B700B0
:1008300040E065E082E00E94B70041E064E082E0D1
:100840000E94B70040E063E082E00E94B70040E011
:1008500067E081E00E94B70041E066E081E00E942D
:10086000B70040E065E081E00E94B70041E064E04D
:1008700081E00E94B700089586E880BD8AB18B7F31
:100880008AB987E689B98AB188608AB98AB18061F4
:100890008AB90895009729F05F9BFECF2CB1FC0127
:0808A00020830895F894FFCFB6
:1008A8004D6F76696E6720466F7277617264005487
:1008B80075726E696E67204261636B77617264005E
:1008C8005475726E696E6720526967687400547552
:1008D800726E696E67204C656674004D6F76696E3E
:1008E80067204261636B7761726400496E76616C60
:0E08F800696420646972656374696F6E000044
:00000001FF
